:020000040000fa
:080000000002040000000000f2
:020000040000fa
:10000800d2020000d2020000d2020000d202000098
:10001800d2020000d2020000d2020000d202000088
:10002800d2020000d2020000d2020000d202000078
:10003800d2020000d2020000d2020000d202000068
:10004800d2020000d2020000d2020000d202000058
:10005800d2020000d2020000d2020000d202000048
:10006800d2020000d2020000d2020000d202000038
:10007800d2020000d2020000d2020000d202000028
:10008800d2020000d2020000d2020000d202000018
:10009800d2020000d2020000d2020000d202000008
:1000a800d2020000d2020000d2020000d2020000f8
:1000b800d2020000d2020000d2020000d2020000e8
:1000c800d2020000d2020000d2020000d2020000d8
:1000d800d2020000d2020000d2020000d2020000c8
:1000e800d2020000d2020000d2020000d2020000b8
:1000f800d2020000d2020000d2020000d2020000a8
:10010800d2020000d2020000d2020000d202000097
:10011800d2020000d2020000d2020000d202000087
:10012800d2020000d2020000d2020000d202000077
:10013800d2020000d2020000d2020000d202000067
:10014800d2020000d2020000d2020000d202000057
:10015800d2020000d2020000d2020000d202000047
:10016800d2020000d2020000d2020000d202000037
:10017800d2020000d2020000d2020000d202000027
:10018800d2020000d2020000d2020000d202000017
:10019800d2020000d2020000d2020000d202000007
:1001a800d2020000d2020000d2020000d2020000f7
:1001b800c0060000d2020000d2020000d2020000f5
:1001c800d2020000d2020000d2020000d2020000d7
:1001d800d2020000d2020000d2020000d2020000c7
:1001e800d2020000d2020000d2020000d2020000b7
:0801f800d2020000d202000057
:020000040000fa
:10020800d2020000d2020000d2020000d202000096
:10021800d2020000d2020000d2020000d202000086
:10022800d2020000d2020000d2020000d202000076
:10023800d2020000d2020000d2020000d202000066
:10024800d2020000d2020000d2020000d202000056
:10025800d2020000d2020000d2020000d202000046
:10026800d2020000d2020000d2020000d202000036
:10027800d2020000d2020000d2020000d202000026
:10028800d2020000d2020000d2020000d202000016
:10029800d2020000d2020000d2020000d202000006
:1002a800d2020000d2020000d2020000d2020000f6
:1002b800d2020000d2020000d2020000d2020000e6
:1002c800d2020000d2020000d2020000d2020000d6
:1002d800d2020000d2020000d2020000d2020000c6
:1002e800d2020000d2020000d2020000d2020000b6
:1002f800d2020000d2020000d2020000d2020000a6
:10030800d2020000d2020000d2020000d202000095
:10031800d2020000d2020000d2020000d202000085
:10032800d2020000d2020000d2020000d202000075
:10033800d2020000d2020000d2020000d202000065
:10034800d2020000d2020000d2020000d202000055
:10035800d2020000d2020000d2020000d202000045
:10036800d2020000d2020000d2020000d202000035
:10037800d2020000d2020000d2020000d202000025
:10038800d2020000d2020000d2020000d202000015
:10039800d2020000d2020000d2020000d202000005
:1003a800d2020000d2020000d2020000d2020000f5
:1003b800c0060000d2020000d2020000d2020000f3
:1003c800d2020000d2020000d2020000d2020000d5
:1003d800d2020000d2020000d2020000d2020000c5
:1003e800d2020000d2020000d2020000d2020000b5
:0803f800d2020000d202000055
:020000040000fa
:100400006f8420000ebf25000e0188000000000050
:10041000000020000000e000020032000001200087
:10042000200288000c000700e01f210001002000ce
:100430000f000700000020000000e0000200320072
:100440000000020000000000841102000000000013
:100450000040da000000fe00200020000000e00064
:100460000200320010002000900188000000060009
:10047000a1028800800078000000eb001a0037001d
:10048000e280400054a0b4009101ba00e280400034
:1004900054a0b4009102ba00e280400054a0b4001d
:1004a0000002eb00472bde00f507b200a601880032
:1004b000602ce10008003a000049eb000201e8006e
:1004c000020039003420ec0002f0a0008301e900b2
:1004d000f9ff3e00040037006128e100010032000e
:1004e0000082eb00040007001101ba000200e000e6
:1004f000e3ff3a000000060004d0a300e20f490029
:100500001c003900810278003549ba000201e80078
:10051000020039003420ec0002f0a0008301e90061
:100520000f0032002549ba000201e800020039003c
:100530003420ec0002f0a0008301e9000800320042
:100540000400e0000600320015c9ba000201e8000c
:10055000020039003420ec0002f0a0008301e90021
:100560008180e80054a0b4000300e000e2ff3a00fc
:10057000000006009102ba00055978008301e900e5
:10058000f7ff3200c82ade00055978008301e90030
:10059000f3ff32000400e000f1ff320011d9ba008d
:1005a000eeff37000040da000000fe006022b800d5
:1005b000060220000000d0008180d2000482d20018
:1005c0008582d2000000a0000202520083825a00fd
:1005d000030031000202420083824a000000a100b1
:1005e0000603e900f3ff3a0000000600efff0700f2
:1005f0000400be000000060015c0b300010020008a
:10060000048420001042880021428800054a7800b6
:1006100000000600048420008042eb0094cf12000a
:1006200002003a0010002000f3ff07001042800093
:1006300021428000d2e62400631c24000900070048
:1006400094032300050020000002420081824a003a
:1006500014428800254288000500780000f0a100bf
:1006600000000600020ab900001bb9000200b80031
:0c067000810042008100430000000600f1
:020000040000fa
:10067c000000fa00889fbe004487a800393a800029
:10068c00f81f2000888464000860210009047400ad
:10069c00383a880002c025000300200002017800cf
:1006ac00c238880000c0250001002000000078003e
:1006bc00d038880006c0250007002000060378000b
:1006cc008638880004c0250005002000040278004c
:1006dc00943888000082eb00f439880024398000bb
:1006ec000400a0000410a1000420a10024398800fb
:1006fc000082eb00f4398800a538800004802f00bc
:10070c00848262000428200005027200a43888004c
:10071c00a5388000f47f200084826200f47f2000e2
:10072c0004826200e638800005802f008502630099
:10073c0005027200e4388800b538800004802f0070
:10074c0084826200041e200005027200b438880006
:10075c00b5388000f47f200084826200f47f200092
:10076c0004826200f638800005802f008502630049
:10077c0005027200f43888000539800004802f00cf
:10078c008482620004322000050272000439880061
:10079c001539800004802f0084826200a42320007d
:1007ac00050272001439880026e7a9002647a90023
:1007bc0026c7a9002627a8002607a80026a7a90057
:1007cc002687a900d4c2b300040078002fe7b70035
:1007dc00f4722000144278000400780029e7b70076
:1007ec0004cab300040078002ee7b700e4722000be
:1007fc00144278000400780028e7b700a4c0b300c6
:10080c00040078002ce7b70004c1b30004007800a2
:10081c002ae7b70024c0b300040078002de7b70026
:10082c0004c6b300040078002be7b7002667a900c4
:10083c002727a8002707a800243880000450a00010
:10084c000460a1000470a1002438880024388000c2
:10085c004522de00674262000482fb0067026200f0
:10086c004522dd0026398000f5f12f00850263005a
:10087c00050272002439880005e7a80000e823006f
:10088c0001002000cc0607004f04be000080fa00d7
:10089c00000006000200fa00000f780000000000c3
:1008ac000100370000000000343880006202620052
:1008bc00e00f5200fbff3a001e027800043888005b
:1008cc000460260014388800000000000080fa0044
:1008dc00000006000000fa003107a8000002eb003f
:1008ec00943988000042eb000002fd0030e7b700ad
:1008fc000002fd00000000000100370000000000b5
:10090c00853980000400240004826200e00f52004c
:10091c00faff3a0014c0b3000002fd0030e7b70044
:10092c000002fd000082eb009439880000000000fa
:10093c00010037000000000085398000040024000d
:10094c0004826200e00f5200faff3a0024c0b300a8
:10095c000002fd0030e7b7000002fd00f47f20002c
:10096c0094398800000000000100370000000000ee
:10097c00853980000400240004826200e00f5200dc
:10098c00faff3a0034c0b3000002fd0030e7b700b4
:10099c000002fd0004802f00943988000000000044
:1009ac00010037000000000085398000040024009d
:1009bc0004826200e00f5200faff3a003107a900ee
:1009cc0031e7a8000080fa00000006000400fa00dd
:1009dc00000f7800110798001e027800044278007e
:1009ec000002fd0030e7b7000002fd003107a8004f
:1009fc001e029000943988000000000001003700ae
:100a0c00000000008539800004002400048262008c
:100a1c00e00f5200faff3a003107a9000080fa00fb
:100a2c00000006000800fa00000f7800110798007b
:100a3c0022079800330798000000000001003700df
:100a4c00000000003438800062026200e00f5200a7
:100a5c00fbff3a009e0290000428200004aab90073
:100a6c00040278001e024200043888001e0278003e
:100a7c006120b8001e02900005002000062820000e
:100a8c0006abb900060378006021b9008203780038
:100a9c00070343008402780004282000042ab800cd
:100aac0005034300860278000002420081824a005e
:100abc00402ade0084027800043026000502720011
:100acc00143888000000000000000000010037000e
:100adc00000000003438800062026200e00f520017
:100aec00fbff3a002e029000cc22dd003e0290006b
:100afc0005027200043888002e029000c422de0029
:100b0c000440260005027200143888000000000022
:100b1c0000000000010037000000000034388000a5
:100b2c0062026200e00f5200fbff3a000406200054
:100b3c000438880004702600143888000000000077
:100b4c000080fa00000006001000fa00000f780088
:100b5c001107980022079800330798004407980063
:100b6c00550798006607980077079800000000006a
:100b7c00010037000000000034388000620262007f
:100b8c00e00f5200fbff3a00de0290000428200028
:100b9c0004aab900840278004e029000048242003c
:100bac00043888004e0290006120b8005e0290006c
:100bbc00050020000628200006abb90006037800cb
:100bcc006021b90082037800070343008402780097
:100bdc0004282000042ab80005034300860278008c
:100bec000002420081824a00402ade008402780022
:100bfc000420260005027200143888000000000052
:100c0c0000000000010037000000000034388000b4
:100c1c0062026200e00f5200fbff3a00fe029000fd
:100c2c000428200004aab900840278006e02900007
:100c3c0004824200043888006e0290006120b800e3
:100c4c007e029000050020000628200006abb900ab
:100c5c00060378006021b900820378000703430083
:100c6c008402780004282000042ab80005034300fd
:100c7c00860278000002420081824a00402ade008f
:100c8c0084027800043026000502720014388800b3
:100c9c000000000000000000010037000000000010
:100cac003438800062026200e00f5200fbff3a0011
:100cbc004eba9700cc22dd003eba970005027200b6
:100ccc00043888004eba9700c422de000440260087
:100cdc0005027200143888000000000000000000bb
:100cec00010037000000000034388000620262000e
:100cfc00e00f5200fbff3a00f40f20001e026200ce
:100d0c00c322dd001e029000630262000402420056
:100d1c00050272000438880004702600143888001c
:100d2c00000000000080fa00000006000800fa0035
:100d3c0024032000040f78002403200014079800db
:100d4c002403200024079800640420003407980032
:100d5c000000eb00cffe0700031e2000022820003d
:100d6c008000eb000000eb002eff07000080fa0073
:100d7c0000000600801f7800841f78003200f80005
:100d8c0010002000900188000000fa005438800008
:100d9c0070026200e00f52000800320014c0b30071
:100dac000002fd0000e8b7000002fd000002eb00ad
:100dbc00f44188000a87a9000800370054388000e5
:100dcc0068026200e00f520004003200f44180001f
:100ddc000402e800f44188000a67a9009080a90089
:100dec000080fa003200f9004f0278004f007800c2
:100dfc00004006000600fa00889fbe00100798000d
:100e0c00210798001e0290006120b9002e0290006c
:100e1c00cfa2de000628200006abb900060378003e
:100e2c006024b9008803780007034300840278002b
:100e3c0004282000042ab800050343008602780029
:100e4c000002420081824a004e28dd004222de0070
:100e5c0004027000c22ade00848fd2008582d20088
:100e6c000402780004f0a10002c025000300200059
:100e7c00960180008200d0008403d00007824000dd
:100e8c004220a800858249004200a9004220ae0001
:100e9c004200a8000482d3008503780097018800e3
:100eac00040278001442780096018800044f780000
:100ebc009e02fb001e03900044002000110009005c
:100ecc000403d800010278000402420004aade00e8
:100edc0063026200040078004f04be000080fa0038
:100eec00000006000400fa00000f780011079800bb
:100efc001e027800e00f52000b0034009e027800b6
:100f0c00d4272000848f520007003e001e02900060
:100f1c00e00f5200040034009e029000d41d20000b
:100f2c00848f5200020036000002eb0001003700f3
:100f3c0014002000040078000080fa000000060075
:100f4c000a00fa0030079800410798000002eb00f5
:100f5c00040f78002f0037003e0290001407980011
:100f6c004e029000240798001e027800cfa2de00eb
:100f7c003600200007002000860f5200878f5a0091
:100f8c0015003e0004600100030037000600370026
:100f9c00090037000c0037003e0290000482e80084
:100fac00140798000c0037004e0290000482e800f1
:100fbc0024079800080037003e0290000482e900e4
:100fcc0014079800040037004e0290000482e900d8
:100fdc002407980000000000ae0090001e00900056
:100fec00c0ff070000027800e00f5200080032003a
:100ffc00ae0090001e0090007eff070000027800fb
:10100c00e10f520002003a001400200005003700e6
:10101c001e0fe8001e027800e30f5200ceff3400d2
:10102c000002eb00040078000080fa0000000600cb
:10103c000000fa0074fd0700000278008501200012
:10104c00110009000502d80001027800cfa2de00d1
:10105c007601200007002000860f5200878f5a006f
:10106c0049003e00046001001700370018003700eb
:10107c00190037001a0037001b0037001c0037001e
:10108c001d0037001e0037001f00370020003700fe
:10109c0021003700220037002300370024003700de
:1010ac0025003700260037002700370028003700be
:1010bc00290037002a0037002b0037002c0037009e
:1010cc002d0037002e003700b40120002f00370010
:1010dc00e40120002d003700740220002b003700a3
:1010ec00d4022000290037006403200027003700b9
:1010fc009403200025003700b4042000230037009f
:10110c00e404200021003700340620001f003700c3
:10111c00c40620001d003700240720001b003700e8
:10112c0084072000190037007408200017003700ce
:10113c00d4082000150037003409200013003700b4
:10114c00c409200011003700140b20000f003700d9
:10115c00440b20000d003700640c20000b003700fe
:10116c00940c200009003700240d200007003700e4
:10117c00840d200005003700140e200003003700fa
:10118c00440e2000010037000002eb000400780040
:10119c000080fa00000006001c00fa001400200079
:1011ac00040f78001400200014079800140020008d
:1011bc002407980014002000340798001000200029
:1011cc00b4fd07000100370000000000be029000d3
:1011dc002e029000130020001200200085007800e1
:1011ec00040078000ffe07000002eb00140f9800bb
:1011fc008fff070000027800340f98000002eb000c
:10120c00040f9800510037002e02900044079800fc
:10121c004e029000640798003e029000540798001c
:10122c005e02900074079800be0a90000e0a9000af
:10123c0004aade0063026200cfa2de0036002000aa
:10124c0007002000860f5200878f5a0021003e00b5
:10125c000460010003003700090037000f0037005d
:10126c00150037002e0290000482e8004407980015
:10127c002e0290000402e800640798001500370065
:10128c003e0290000482e800540798003e02900051
:10129c000402e800740798000e0037002e0290003c
:1012ac000482e900440798002e0290000402e90031
:1012bc0064079800070037003e0290000482e900a2
:1012cc00540798003e0290000402e900740798004d
:1012dc0000000000de0090004e00900001ff0700af
:1012ec0000027800e00f520006003200de00900091
:1012fc004e009000bffe070000027800e00f520085
:10130c00040032000e0a90000482e800040f9800da
:10131c000e003700fe0290006e02900013002000b9
:10132c00120020008500780004007800bdfd070045
:10133c004e029000240798005e029000340798003b
:10134c0014002000140f9800030037000e0a9000c0
:10135c00e70f5200acff34001e0a9000e00f520061
:10136c0099ff3a0014002000240f98001e02780008
:10137c00440798001e0290005407980001003700a3
:10138c0000000000de0090004e00900099fe070067
:10139c0000027800440f9800de0090004e00900090
:1013ac00e7fe070000027800540f98002e0a900008
:1013bc00e00f5200070032004e0a9000e00f52007e
:1013cc00040032004e029000040f78005e02900080
:1013dc00140798002e0a9000e00f5200050032000e
:1013ec004e0a9000e00f520002003a000002eb009f
:1013fc00240f98004e0a9000e00f52000d003a00a6
:10140c005e0a9000e00f52000a0032004e0290007b
:10141c00240798005e0290003407980004ff070030
:10142c0000027800340f98000002eb00040f9800c3
:10143c00680037004e0290000482e80044079800d0
:10144c004e029000cfa2de00e22720000300200015
:10145c000400be0052fc07000002be00040278002b
:10146c0004024200840278005e0290000482420072
:10147c00540798004e029000cfa2de00e227200015
:10148c00030020000400be0055fc07000002be0053
:10149c0044079800de029000d41d2000848f520077
:1014ac00b7ff36004f0037002e029000440798001b
:1014bc004e029000640798003e029000540798007a
:1014cc005e02900074079800be0a90000e0a90000d
:1014dc0004aade0063026200cfa2de003600200008
:1014ec0007002000860f5200878f5a0021003e0013
:1014fc000460010003003700090037000f003700bb
:10150c00150037002e0290000482e8004407980072
:10151c002e0290000402e8006407980015003700c2
:10152c003e0290000482e800540798003e029000ae
:10153c000402e800740798000e0037002e02900099
:10154c000482e900440798002e0290000402e9008e
:10155c0064079800070037003e0290000482e900ff
:10156c00540798003e0290000402e90074079800aa
:10157c0000000000de0090004e00900059fe0700b5
:10158c0000027800e00f52000f003200de009000e5
:10159c004e00900017fe070000027800e10f520089
:1015ac0009003a00fe0290006e0290001300200029
:1015bc0012002000850078000400780019fd070057
:1015cc000000000001ff37000e0a90000482e800c2
:1015dc00040f98000e0a9000e70f5200b2ff34007f
:1015ec00fafe37000080fa00000006001200fa0034
:1015fc0040079800510798006207980073079800fd
:10160c00040f98004e02900004007800a1fc070023
:10161c003b003700ee0290005e02900013002000a9
:10162c00120020008500780004007800fdfc070003
:10163c000002eb00040f78002e0037005e029000d1
:10164c00140798006e029000240798001e02780080
:10165c00cfa2de003600200007002000860f5200cb
:10166c00878f5a0015003e0004600100030037000c
:10167c0006003700090037000c0037005e029000ae
:10168c000402e800140798000c0037006e0290006a
:10169c000402e80024079800080037005e0290005e
:1016ac000402e90014079800040037006e02900051
:1016bc000402e9002407980000000000ae0090002e
:1016cc001e009000cbfd07000002780064479800d4
:1016dc006e429000e24f520005003a001e0290004c
:1016ec00540798002e0290006407980004003700fd
:1016fc001e0fe8001e027800e30f5200cfff3400eb
:10170c00ee0090005e009000bafd07000002780029
:10171c00e20f520008003a00de0290007e029000b8
:10172c00848f5200bbff3a00ee0290000e0a90002c
:10173c00848f5200b7ff3a000080fa0000000600c8
:10174c001600fa00000f9800110f9800220f980055
:10175c000002eb0054079800200020004dfc07000d
:10176c009e0a90000e0a9000130020001200200028
:10177c008500780004007800aafc070001003700ff
:10178c00000000002e0a9000e00f52000b00320007
:10179c0014c0b3005e039000ae0a9000850f530096
:1017ac0001003c000042eb00de0290008502e800e4
:1017bc0055079800e04f520077003a001cfe0700d6
:1017cc0000027800640798000002eb0044079800c0
:1017dc00400037000e0a9000140798001e0290007b
:1017ec00040f78001e0a9000340798003e02900007
:1017fc0024079800ee0290004e02900004aade002e
:10180c0063026200cfa2de00360020000700200039
:10181c00860f5200878f5a001f003e0004600100a3
:10182c0003003700080037000e00370013003700a4
:10183c000e0a90000482e800140798000e0a90002b
:10184c00040fe800140037001e0a90000482e80020
:10185c00340798001e0a90000402e8002407980040
:10186c000d0037000e0a90000482e900140798005e
:10187c000e0a9000040fe900070037001e0a9000c2
:10188c000482e900340798001e0a90000402e90063
:10189c002407980000000000be0090001e0090007d
:1018ac0090fd070000027800e00f520006003200a5
:1018bc00ae0090001e0078004efd0700000278007c
:1018cc00e20f520007003a004e0290000482e8003a
:1018dc00440798004e029000e70f5200bdff340001
:1018ec000100370000000000be0090001e009000b8
:1018fc0040fd070000027800740798007e029000fb
:10190c00e20f52000e003a003e0290009e01900041
:10191c001e0990008e0890000000eb0033ff0700ba
:10192c0020002000dbfb07001e029000040f980033
:10193c003e029000140f98000000000091ff370049
:10194c00be0290001e029000130020001200200026
:10195c00850078000400780032fc0700ae0290008d
:10196c001e02780013002000120020008500780071
:10197c00040078002bfc07001e029000040f980056
:10198c003e029000140f98007e029000e10f52006e
:10199c007bff3a0001003700000000000082eb00e2
:1019ac008081eb001e0990008e0890001000200032
:1019bc000eff07000080fa00000006000600fa0087
:1019cc0010002000b3fb0700823e2000f10e200027
:1019dc00f01320005aff0700140020001407980091
:1019ec001700370014002000040f78000d0037009a
:1019fc009e0090001e007800fefc0700000278009c
:101a0c00240798002e029000e10f520004003200cf
:101a1c000001eb009e0090001e00780048ff0700bc
:101a2c001e8fe8009e027800d4272000848f52007d
:101a3c00efff36001e0290000482e80014079800a5
:101a4c009e029000d41d2000848f5200e5ff3600ca
:101a5c000080fa00000006000e00fa0014002000be
:101a6c00040f780014002000140798000002eb000b
:101a7c00240798005a0037003000200085fb07002f
:101a8c009e0290001e02780013002000120020001d
:101a9c008500780004007800e2fb070000e82300d2
:101aac0001002000440207000002eb0064079800cc
:101abc00370037001e007800400798009e00900009
:101acc00510798006e029000e40242002e02900032
:101adc00048242008402e900440020001100090045
:101aec008402d80001027800340798003e0290006e
:101afc00cfa2de003600200007002000860f520027
:101b0c00878f5a0013003e00046001000300370069
:101b1c0005003700080037000a0037001e02e800f5
:101b2c00440798000b0037001e0290000402e800e6
:101b3c0054079800070037001e02e900440798007c
:101b4c00040037001e0290000402e90054079800bc
:101b5c0000000000de0090004e009000e1fc070049
:101b6c0000027800e00f520006003200de00900008
:101b7c004e0090009ffc070000027800e00f52001e
:101b8c0007003a006e0290000402e8006407980017
:101b9c006e029000e30f5200c6ff340001003700c4
:101bac0000000000200020003afb07009e0290007d
:101bbc001e0278001300200012002000850078001f
:101bcc000400780097fb07004e029000040f780089
:101bdc005e00900010079800be009000210798004e
:101bec00d42720009e027800848f5200a2ff3a0076
:101bfc009e029000d41d2000848f52009eff3a005c
:101c0c009e0290001e02780013002000120020009b
:101c1c00850078000400780082fb07000080fa0041
:101c2c00000006001000fa005007980061079800a9
:101c3c0072079800de029000d4272000848f520097
:101c4c0004003a00ee029000d41d2000848f520054
:101c5c0073003200300020000efb0700ee029000f3
:101c6c005e02900013002000120020008500780016
:101c7c00040078006bfb070000e823000100200043
:101c8c00cd010700eafc0700000278003407980039
:101c9c000002eb00240798005c0037005e00900007
:101cac00000f7800ee009000110798002e029000b3
:101cbc00e40242007e029000048242008402e900a9
:101ccc0044002000110009008402d80001027800b1
:101cdc00440798002e02900004024200be029000bd
:101cec0004aade0063026200cfa2de0036002000f0
:101cfc0007002000860f5200878f5a0013003e0009
:101d0c0004600100030037000500370008003700ad
:101d1c000a0037005e029000040fe8000b00370049
:101d2c006e0290000402e8001407980007003700c8
:101d3c005e029000040fe900040037006e02900070
:101d4c000402e90014079800000000009e009000b7
:101d5c001e00780063fc070000027800e00f5200c0
:101d6c00270032009e0090001e00780021fc070026
:101d7c0000027800e10f520021003a002000200000
:101d8c00c4fa0700ee0290005e02900013002000df
:101d9c0012002000850078000400780021fb070069
:101dac0000e8230001002000830107004e01900091
:101dbc009e0090001e0078009aff07000002780039
:101dcc00e00f520002003200140020002100370006
:101ddc0030002000affa0700ee0290005e02900087
:101dec001300200012002000850078000400780009
:101dfc000cfb070000e82300010020006e01070027
:101e0c002e0290000402e800240798002e02900095
:101e1c00e30f5200a1ff34000002eb000d0037006d
:101e2c00200020009bfa0700ee0290005e0290005a
:101e3c0013002000120020008500780004007800b8
:101e4c00f8fa070000e82300010020005a010700ff
:101e5c0014002000040078000080fa000000060046
:101e6c001000fa0014002000040f78001400200069
:101e7c00140798000002eb00540798005e029000d3
:101e8c00cfa2de00422bdd00ce23de0087037300e1
:101e9c004223dd00248020000402430015002000b2
:101eac00050a78005e0290006123b900423add0019
:101ebc00ce32de00850272004232dd006202420048
:101ecc00e0824a0026802000060242001500200015
:101edc00050a78008e0037005e029000ee0f52006b
:101eec0094003c005e029000cfa2de00422bdd008d
:101efc00ce23de00870373004223dd002480200004
:101f0c0004024300140f78005e0290006123b900b4
:101f1c00423add00ce32de00850272004232dd0034
:101f2c0062024200e0824a00268020000602420043
:101f3c0014007800100798003000200055fa0700b4
:101f4c009e0290001e027800130020001200200058
:101f5c008500780004007800b2fa070000e823003e
:101f6c00010020001401070031fc0700000278007a
:101f7c00640798000002eb00440798005e003700ed
:101f8c009e007800210798001e02900034079800ec
:101f9c004e029000e40242006e0290000482420065
:101fac008402e90044002000110009008402d800da
:101fbc0001027800740798007e029000cfa2de0028
:101fcc003600200007002000860f5200878f5a0031
:101fdc0013003e00046001000300370005003700c9
:101fec00080037000a0037001e02e800240798009a
:101ffc000b0037001e0290000402e8003407980022
:10200c00070037001e02e90024079800040037007f
:10201c001e0290000402e900340798000000000042
:10202c00be0090002e009000aefb0700000278006e
:10203c00e00f52002d003200be0090002e009000e8
:10204c006cfb070000027800e10f520027003a00f9
:10205c00200020000ffa07009e0290001e0278005c
:10206c001300200012002000850078000400780086
:10207c006cfa070000e8230001002000ce000700e6
:10208c005e0290000402e800540798005e02900083
:10209c00cfa2de00422bdd00ce23de0087037300cf
:1020ac004223dd002480200004024300ae02900095
:1020bc00050a78005e0290006123b900423add0007
:1020cc00ce32de00850272004232dd006202420036
:1020dc00e0824a0026802000060242003e0090006a
:1020ec00000a780000000000090037004e02900042
:1020fc000402e800440798004e029000e30f5200df
:10210c009fff34005e0290000402e900540798001f
:10211c00d42720009e027800848f52006eff3a0074
:10212c009e029000d41d2000848f52006aff3a005a
:10213c0001003700000000000080fa0000000600db
:10214c001200fa0014002000040f78001400200084
:10215c00140798005f00370030002000cdf907000d
:10216c009e0290001e027800130020001200200036
:10217c0085007800040078002afa0700acfb070001
:10218c0000027800540798000002eb004407980006
:10219c00490037001e027800240798001e029000a8
:1021ac00340798004e02900004024200de029000b8
:1021bc0004aade0063026200cfa2de00360020001b
:1021cc0007002000860f5200878f5a0013003e0034
:1021dc0004600100030037000500370008003700d9
:1021ec000a0037001e02e800240798000b00370095
:1021fc001e0290000402e800340798000700370024
:10220c001e02e90024079800040037001e0290000b
:10221c000402e9003407980000000000be009000a2
:10222c002e009000f3fa070000027800444f98004b
:10223c004e4a9000e24f520004003a002e029000e9
:10224c00740798003e029000040f9800be009000a6
:10225c002e00900023fb070000027800e00f5200d4
:10226c00120032004e4a9000e14f52000f003a002b
:10227c002000200087f907009e0290001e027800c3
:10228c001300200012002000850078000400780064
:10229c00e4f907002e029000040f78003e02900033
:1022ac0014079800000000000a0037004e0290004e
:1022bc000402e800440798004e029000e30f52001d
:1022cc00b4ff34007e029000040f78000e0a9000d8
:1022dc0014079800d42720009e027800848f5200a7
:1022ec009dff3a009e029000d41d2000848f520066
:1022fc0099ff3a000080fa00000006000200fa0084
:10230c000002eb00142788000002eb002427880051
:10231c000002eb00342788000002eb0054278800f1
:10232c000002eb00642788000002eb0044168800d2
:10233c00cff8070067f907000a87a9000887a800eb
:10234c000a67a9000867a800a080a80077fa070010
:10235c0000402b00414c2000170007000000eb0050
:10236c00a2f807000002eb00040f780093fd0700b1
:10237c0073ff070000402b00414c20000e000700ab
:10238c006afa07000042eb000002fd0000e8b7000b
:10239c000002fd00000000000100370000000000fa
:1023ac000480200014427800e04f5200fbff320002
:0823bc001e0fe800edff3700e1
:020000040000fa
:1023c400f03fb1000180b10006003500ee030900c2
:1023d40000000000403fb1000180b100fbff3d0060
:1023e4001000b000203fb00002003500008009005a
:0823f4000000000000000600db
:020000040000fa
:1023fc00005c0000002c00008000000000080000c1
:10240c0040000000800000004008000006000000b2
:08241c00800000000000000038
:020000040000fa
:020000040005f5
:0457f400ffec0000c6
:020000040000fa
:020000040005f5
:0457f800be9b000054
:020000040000fa
:020000040005f5
:0457fc007f3f0000eb
:00000001FF
