:020000040000fa
:080000000002040000000000f2
:020000040000fa
:10000800d2020000d2020000d2020000d202000098
:10001800d2020000d2020000d2020000d202000088
:10002800d2020000d2020000d2020000d202000078
:10003800d2020000d2020000d2020000d202000068
:10004800d2020000d2020000d2020000d202000058
:10005800d2020000d2020000d2020000d202000048
:10006800d2020000d2020000d2020000d202000038
:10007800d2020000d2020000d2020000d202000028
:10008800d2020000d2020000d2020000d202000018
:10009800d2020000d2020000d2020000d202000008
:1000a800d2020000d2020000d2020000d2020000f8
:1000b800d2020000d2020000d2020000d2020000e8
:1000c800d2020000d2020000d2020000d2020000d8
:1000d800d2020000d2020000d2020000d2020000c8
:1000e800d2020000d2020000d2020000d2020000b8
:1000f800d2020000d2020000d2020000d2020000a8
:10010800d2020000d2020000d2020000d202000097
:10011800d2020000d2020000d2020000d202000087
:10012800d2020000d2020000d2020000d202000077
:10013800d2020000d2020000d2020000d202000067
:10014800d2020000d2020000d2020000d202000057
:10015800d2020000d2020000d2020000d202000047
:10016800d2020000d2020000d2020000d202000037
:10017800d2020000d2020000d2020000d202000027
:10018800d2020000d2020000d2020000d202000017
:10019800d2020000d2020000d2020000d202000007
:1001a800d2020000d2020000d2020000d2020000f7
:1001b80058080000d2020000d2020000d20200005b
:1001c800d2020000d2020000d2020000d2020000d7
:1001d800d2020000d2020000d2020000d2020000c7
:1001e800d2020000d2020000d2020000d2020000b7
:0801f800d2020000d202000057
:020000040000fa
:10020800d2020000d2020000d2020000d202000096
:10021800d2020000d2020000d2020000d202000086
:10022800d2020000d2020000d2020000d202000076
:10023800d2020000d2020000d2020000d202000066
:10024800d2020000d2020000d2020000d202000056
:10025800d2020000d2020000d2020000d202000046
:10026800d2020000d2020000d2020000d202000036
:10027800d2020000d2020000d2020000d202000026
:10028800d2020000d2020000d2020000d202000016
:10029800d2020000d2020000d2020000d202000006
:1002a800d2020000d2020000d2020000d2020000f6
:1002b800d2020000d2020000d2020000d2020000e6
:1002c800d2020000d2020000d2020000d2020000d6
:1002d800d2020000d2020000d2020000d2020000c6
:1002e800d2020000d2020000d2020000d2020000b6
:1002f800d2020000d2020000d2020000d2020000a6
:10030800d2020000d2020000d2020000d202000095
:10031800d2020000d2020000d2020000d202000085
:10032800d2020000d2020000d2020000d202000075
:10033800d2020000d2020000d2020000d202000065
:10034800d2020000d2020000d2020000d202000055
:10035800d2020000d2020000d2020000d202000045
:10036800d2020000d2020000d2020000d202000035
:10037800d2020000d2020000d2020000d202000025
:10038800d2020000d2020000d2020000d202000015
:10039800d2020000d2020000d2020000d202000005
:1003a800d2020000d2020000d2020000d2020000f5
:1003b80058080000d2020000d2020000d202000059
:1003c800d2020000d2020000d2020000d2020000d5
:1003d800d2020000d2020000d2020000d2020000c5
:1003e800d2020000d2020000d2020000d2020000b5
:0803f800d2020000d202000055
:020000040000fa
:100400004f8020000eff23000e0188000000000036
:10041000000020000000e000020032000001200087
:10042000200288000c00070000bb20000100200013
:100430000f000700000020000000e0000200320072
:100440000000020000000000c008020000000000e0
:100450000040da000000fe00200020000000e00064
:100460000200320010002000900188000000060009
:10047000a1028800800078000000eb001a0037001d
:10048000e280400054a0b4009101ba00e280400034
:1004900054a0b4009102ba00e280400054a0b4001d
:1004a0000002eb00472bde00f507b200a601880032
:1004b000602ce10008003a000049eb000201e8006e
:1004c000020039003420ec0002f0a0008301e900b2
:1004d000f9ff3e00040037006128e100010032000e
:1004e0000082eb00040007001101ba000200e000e6
:1004f000e3ff3a000000060004d0a300e20f490029
:100500001c003900810278003549ba000201e80078
:10051000020039003420ec0002f0a0008301e90061
:100520000f0032002549ba000201e800020039003c
:100530003420ec0002f0a0008301e9000800320042
:100540000400e0000600320015c9ba000201e8000c
:10055000020039003420ec0002f0a0008301e90021
:100560008180e80054a0b4000300e000e2ff3a00fc
:10057000000006009102ba00055978008301e900e5
:10058000f7ff3200c82ade00055978008301e90030
:10059000f3ff32000400e000f1ff320011d9ba008d
:1005a000eeff37000040da000000fe0015c0b30087
:1005b000010020002488250020c48a0031c48a005c
:1005c000054a780000000600248825008042eb00e0
:1005d00094cf120002003a0010002000f3ff070041
:1005e00020c4820031c48200d2e62400631c2400af
:1005f00009000700940323000500200000024200c8
:1006000081824a0024c48a0035c48a00050078002b
:1006100000f0a10000000600020ab900001bb900aa
:100620000200b80081004200810043000000060083
:020000040000fa
:100630000000fa00889fbe004487a800393a800075
:10064000f81f2000888464000860210009047400f9
:10065000383a880002c0250003002000020178001b
:10066000c238880000c0250001002000000078008a
:10067000d038880006c02500070020000603780057
:100680008638880004c02500050020000402780098
:10069000943888000082eb00f43988002439800007
:1006a0000400a0000410a1000420a1002439880047
:1006b0000082eb00f4398800a538800004802f0008
:1006c000848262000428200005027200a438880099
:1006d000a5388000f47f200084826200f47f20002f
:1006e00004826200e638800005802f0085026300e6
:1006f00005027200e4388800b538800004802f00bd
:1007000084826200041e200005027200b438880052
:10071000b5388000f47f200084826200f47f2000de
:1007200004826200f638800005802f008502630095
:1007300005027200f43888000539800004802f001b
:1007400084826200043220000502720004398800ad
:100750001539800004802f0084826200a4232000c9
:10076000050272001439880026e7a9002647a9006f
:1007700026c7a9002627a8002607a80026a7a900a3
:100780002687a900d4c2b300040078002fe7b70081
:10079000f4722000144278000400780029e7b700c2
:1007a00004cab300040078002ee7b700e47220000a
:1007b000144278000400780028e7b700a4c0b30012
:1007c000040078002ce7b70004c1b30004007800ef
:1007d0002ae7b70024c0b300040078002de7b70073
:1007e00004c6b300040078002be7b7002667a90011
:1007f0002727a8002707a800243880000450a0005d
:100800000460a1000470a10024388800243880000e
:100810004522de00674262000482fb00670262003c
:100820004522dd0026398000f5f12f0085026300a6
:10083000050272002439880005e7a80000e82300bb
:1008400001002000b50407004f04be000080fa003c
:10085000000006000200fa00000f7800000000000f
:10086000010037000000000034388000620262009e
:10087000e00f5200fbff3a001e02780004388800a7
:100880000460260014388800000000000080fa0090
:10089000000006000000fa003107a8000002eb008b
:1008a000943988000042eb000002fd0030e7b700f9
:1008b0000002fd0000000000010037000000000001
:1008c000853980000400240004826200e00f520099
:1008d000faff3a0014c0b3000002fd0030e7b70091
:1008e0000002fd000082eb00943988000000000047
:1008f000010037000000000085398000040024005a
:1009000004826200e00f5200faff3a0024c0b300f4
:100910000002fd0030e7b7000002fd0004402000a7
:10092000943988000000000001003700000000003a
:10093000853980000400240004826200e00f520028
:10094000faff3a0034c0b3000002fd0030e7b70000
:100950000002fd00f4ef2f00943988000000000031
:1009600001003700000000008539800004002400e9
:1009700004826200e00f5200faff3a003107a9003a
:1009800031e7a8000080fa00000006000400fa0029
:10099000000f7800110798001e02780004427800ca
:1009a0000002fd0030e7b7000002fd003107a8009b
:1009b0001e029000943988000000000001003700fa
:1009c00000000000853980000400240004826200d9
:1009d000e00f5200faff3a003107a9000080fa0048
:1009e000000006000800fa00000f780011079800c8
:1009f000220798003307980000000000010037002c
:100a0000000000003438800062026200e00f5200f3
:100a1000fbff3a009e0290000428200004aab900bf
:100a2000040278001e024200043888001e0278008a
:100a30006120b8001e02900005002000062820005a
:100a400006abb900060378006021b9008203780084
:100a5000070343008402780004282000042ab80019
:100a600005034300860278000002420081824a00aa
:100a7000402ade008402780004302600050272005d
:100a8000143888000000000000000000010037005a
:100a9000000000003438800062026200e00f520063
:100aa000fbff3a002e029000cc22dd003e029000b7
:100ab00005027200043888002e029000c422de0075
:100ac000044026000502720014388800000000006f
:100ad00000000000010037000000000034388000f2
:100ae00062026200e00f5200fbff3a0004062000a1
:100af00004388800047026001438880000000000c4
:100b00000080fa00000006001000fa00000f7800d4
:100b100011079800220798003307980044079800af
:100b200055079800660798007707980000000000b6
:100b300001003700000000003438800062026200cb
:100b4000e00f5200fbff3a00de0290000428200074
:100b500004aab900840278004e0290000482420088
:100b6000043888004e0290006120b8005e029000b8
:100b7000050020000628200006abb9000603780017
:100b80006021b900820378000703430084027800e3
:100b900004282000042ab8000503430086027800d8
:100ba0000002420081824a00402ade00840278006e
:100bb000042026000502720014388800000000009e
:100bc0000000000001003700000000003438800001
:100bd00062026200e00f5200fbff3a00fe0290004a
:100be0000428200004aab900840278006e02900054
:100bf00004824200043888006e0290006120b80030
:100c00007e029000050020000628200006abb900f7
:100c1000060378006021b9008203780007034300cf
:100c20008402780004282000042ab8000503430049
:100c3000860278000002420081824a00402ade00db
:100c400084027800043026000502720014388800ff
:100c5000000000000000000001003700000000005c
:100c60003438800062026200e00f5200fbff3a005d
:100c70004eba9700cc22dd003eba97000502720002
:100c8000043888004eba9700c422de0004402600d3
:100c90000502720014388800000000000000000007
:100ca000010037000000000034388000620262005a
:100cb000e00f5200fbff3a00f40f20001e0262001a
:100cc000c322dd001e0290006302620004024200a3
:100cd0000502720004388800047026001438880069
:100ce000000000000080fa00000006000000fa008a
:100cf00020002000d7fe0700931a2000f2272000d2
:100d0000610220000000eb0036ff07000080fa00bf
:100d1000000006000e00fa00889fbe008a9fbe00f9
:100d20008c9fbe000000eb00cafe0700031e2000df
:100d3000022820008000eb000000eb0029ff0700e4
:100d400020002000c3fe07002301200062242000b1
:100d50008000eb003001200022ff0700300020005f
:100d6000bcfe070023012000220120008000eb00d0
:100d70000000eb001bff07000000eb00b5fe0700c2
:100d800033002000d200200071002000200020004d
:100d900014ff070010002000aefe07001300200023
:100da000b200200081002000300020000dff07006d
:100db00030002000a7fe07002301200022012000b0
:100dc0008000eb00a025200006ff07002301200083
:100dd000220120008000eb00d026200001ff070048
:100de0000000eb009bfe07000002eb00040f780000
:100df000310037009e027800e4ff2f0004aab900fa
:100e00000402780067024200840278001e03780022
:100e100068024300040378001e0278000426b00034
:100e20001300200005017800860078000400780097
:100e3000ecfe07009e027800e4ff2f0004aab90030
:100e400004027800670242008402780086002000d5
:100e50001e025300040378001e0278003427b000fd
:100e60001300200005017800860078000400780057
:100e7000dcfe07009e027800e4ff2f0004aab90000
:100e80000402780067024200840278001e037800a2
:100e90006b024300040378001e0278003427b00080
:100ea0001300200005017800860078000400780017
:100eb000ccfe07001e0fe8001e027800e30f520070
:100ec000ccff34003000200062fe07002301200028
:100ed000f2272000310120000000eb00c1fe0700d6
:100ee000100020005bfe070003012000f227200015
:100ef000011d20000000eb00bafe0700000000000a
:100f000001003700000000003438800061026200f8
:100f1000e00f5200fbff32000a0024000b0020000b
:100f20000a02be0004027800643888000800240029
:100f3000090020000802be0004027800743888000e
:100f40001000200043fe0700d4002000841f78001a
:100f500034052000841f780077012000a6002000bf
:100f60008002eb000002eb000200240003002000de
:100f700011002000c0062000e3fe0700e4875700b0
:100f8000000000000100370000000000343880003d
:100f900061026200e00f5200fbff32000480250076
:100fa0001407980006002000260798001e029000f3
:100fb000ae029000040278006438880004802500a6
:100fc0003407980006002000460798003e02900073
:100fd000ce0290000402780074388800a40020003b
:100fe000841f780044032000841f780057002000ed
:100ff000d61120008002eb000002eb0002802500e9
:101000000300200011002000c0012000befe0700e8
:10101000e4875700000000000100370000000000d6
:101020003438800061026200e00f5200fbff3200a2
:1010300004a02500540798000600200066079800c9
:101040005e029000ee02900004027800643888008e
:101050000ca025000d0020000c02be000402780048
:1010600074388800a4002000841f780074062000d3
:10107000841f7800371d2000362120008002eb00fd
:101080000002eb0002a02500030020001100200058
:10109000c00120009cfe0700e48757004f06be00f9
:1010a0004f05be004f04be000080fa00000006009d
:1010b0003600f800809fbe00829fbe00849fbe0065
:1010c000869fbe003200f8001000200090018800ca
:1010d0000000fa005438800070026200e00f5200f5
:1010e0000800320014c0b3000002fd0000e8b700a1
:1010f0000002fd000002eb00144088000a87a900ee
:10110000160037005438800068026200e00f520079
:101110001200320014408000e00f520004003a0038
:10112000810120002000200018fe07000700370082
:101130001540800084072000848f520003003a008d
:10114000014020002000200010fe07001440800015
:101150000402e800144088000a67a9009080a900f2
:101160000080fa003200f9004f03be004f02be00bb
:101170004f01be004f00be003600f90000400600df
:101180001c00fa00881f78000002eb00142788007a
:101190000002eb00242788000002eb0034278800bf
:1011a0000002eb00542788000002eb00642788004f
:1011b0000002eb00441688001dfd0700b5fd070086
:1011c0000a87a9000887a8000a67a9000867a8007d
:1011d000a080a800cffe0700c4fe070000402b003f
:1011e000414c20004d02070010002000effc0700da
:1011f0000002eb00040f7800840720001407980019
:101200008407200024079800a400200034079800d9
:10121000a4002000440798000002eb006407980037
:10122000440020007407980024032000040f980055
:1012300064042000140f98000002eb00540798008b
:1012400024002000240f98000e0a9000d5272000cb
:1012500004825200340f980084022000440f98004a
:101260001e0a9000a51c200004825200540f980012
:10127000de02900044032000848f520003003a00f5
:101280000002eb005407980098fe0700de0a900069
:101290001e0a9000848252002e029000848f520019
:1012a0004c003d004e029000e90f4200490035001d
:1012b0004e029000e90f520046003c00c2fc0700bd
:1012c000000278004824dd00bffc0700000278001f
:1012d00084027800888272003e0a900011000900a2
:1012e0008402d8000102780004f0a7000402ea009a
:1012f000140798009e0290002e0a9000848f5200de
:10130000eeff35009e0290003e0a9000848f52004e
:10131000eaff3c00acfc0700000278004506200014
:10132000110009000502d80001027800840278004b
:101330004e0a9000048242000402e800240798004c
:10134000ae0290004e0a9000848f5200f1ff3500eb
:10135000ae0290005e0a9000848f5200edff3c00c8
:1013600099fc0700000278008500200011000900a8
:101370000502d800010278006322b9000402780057
:101380006c025200340798003e029000e00f5200b9
:10139000f3ff32008cfc070000027800850020007b
:1013a000110009000502d800010278006322b9008b
:1013b0000402780066025200440798004e02900032
:1013c000e00f5200f3ff32005e0290000402e800da
:1013d000540798001e0fe8009e0290003e02900005
:1013e0000482420014079800ae0290004e02900062
:1013f0000482420024079800be0290006e02900012
:101400000482420034079800ce0290007e029000d1
:1014100004824200440798009e0290002e0a900029
:10142000848f52000a003d002e0a90000402420000
:10143000840278001e029000048252001407980073
:101440003e0290000402ea00340798000d003700c5
:101450009e0290003e0a9000848f520009003400e2
:101460003e0a900004024200840278001e029000ae
:1014700004825200140798003e0290000402ea0021
:1014800034079800ae0290004e0a9000848f5200fc
:101490000b003d004e0a90000402420084027800d6
:1014a0002e02900004825200240798004e02900001
:1014b00004f0a7000402ea00440798001100370076
:1014c000ae0290005e0a9000848f52000d0034003e
:1014d0005e0a900004024200840278002e0290000e
:1014e00004825200240798004e0290008402ea0011
:1014f00024002000110009008402d80000027800b6
:10150000440798000000eb00d2fc07001e0a900080
:1015100064025200840378000e0b90002e029000ab
:101520000482e800840278001e029000870178009f
:1015300006017800850078000400780029fd070086
:101540001e0a90000482e900840378000e0a9000cd
:101550000482e900040378002e0290000402e800ef
:10156000840278001e0290000402e80087017800df
:1015700006017800850078000400780019fd070056
:101580009e0b90000e0a9000640252000403780043
:10159000ae0290001e0290000482e80087017800ed
:1015a0000601780085007800040078000dfd070032
:1015b00010002000a7fc07001e0a90000482e9002a
:1015c000840378000e0a900064025200040378003d
:1015d0002e0290000402e800840278001e029000af
:1015e0000482e80087017800060178008500780011
:1015f00004007800fbfc07001e0a90006402520001
:10160000840378000e0a90000482e9000403780045
:101610002e0290000482e800840278001e029000ee
:101620000402e80087017800060178008500780050
:1016300004007800ebfc07000000eb0085fc0700cd
:101640002e02900067024200840278001e02900081
:1016500066024200a3022000f2002000850078000c
:1016600004007800dffc07002e0290003402b00076
:10167000840278001e02900075024200e300200000
:10168000820020008500780004007800d5fc070067
:101690002e02900076024200840278001e02900022
:1016a00075024200130020007201200085007800be
:1016b00004007800cbfc07002e0290007602420066
:1016c000840278001e029000b402b000a302200041
:1016d000120020008500780004007800c1fc07009b
:1016e0002e0290001403b000840278001e029000c5
:1016f0007c024200e30020001200200085007800f8
:1017000004007800b7fc07002e029000f403b0003c
:10171000840278001e0290007c0242001300200028
:10172000f20020008500780004007800adfc07007e
:101730000042eb000002fd0000e8b7000002fd00df
:1017400000000000010037000000000004802000bd
:1017500014427800e04f5200fbff3200c4fe370015
:020000040000fa
:10176000004000000e010000820000003f00ff006a
:10177000ffffff00ffffff00ffffff00ff3ffc0038
:10178000c3ffff00c3ffff00c30fff00ffffff0009
:10179000ffffff00ffffff00ff0fff00f0ffff0054
:1017a000f0ff3f00fccfff00ffffff00ffffff0047
:1017b000ffffff00ffc33f00fcff3f00fcff0f00e7
:1017c000ffff0300fc000000fc03fc00ffffff0024
:1017d000fff00f003fc00f000fc0c300ff3f3c00f1
:1017e0003c3c3c003c3cfc00ffffff003f00c000d5
:1017f000c3c3c300c3c3f00000ff00000f0f0f00fe
:101800000f00ff00ffffff000ffff00000f0f000ef
:10181000f030fc00c30fc300c3c3c300c3ffff000d
:10182000ffffff00c33f3c00fc3f3c003c0cff00bf
:10183000f0f0f000f0f0f000f0ffff00ffffff001d
:10184000f00f0f00ff0f0f000f0f3f003c3c3c005c
:101850003c3c3c003cfcff00ffff3f00fcc3c300de
:10186000c3c3c300c30f30003f000f000f0f3f0082
:10187000c0ffff00ffff0f00fff00300fcf00000bf
:10188000fcffff00ffffff00ffffff00ffffff0067
:10189000ffffff00ffffff00ff3ffc000300c00051
:1018a000ffffff00ffffff00ffffff00ff3f000003
:1018b00000fcff00ff0fff00ffffff00ffffff0026
:1018c000ffffff00ffffff00ffffff00ffffff0024
:1018d000ffc33f00005800008200000082000000ab
:1018e00056a5aa00aa969600aaaaaa0096aaaa0095
:1018f000aaa59600aaaa96009696aa00aa96aa0059
:10190000aaaaa50096aaaa0096aa9600aaaaaa0020
:10191000aaaaaa00a5aa5a00a5969600555aa500fb
:10192000965669009556aa00969696009696960049
:10193000969656005a5a6a00a59696009696960074
:101940006a959600965a5500aa9696009696960025
:10195000965a960096965a00aaa5960096969600d4
:1019600096969600969696005aaaa5009696960088
:101970009696960096969600965a5a0056a55a0044
:10198000a59696005a5a950096966a009500000012
:10199000005a0000020100008200000001505500c2
:1019a00055555500555555005555050050550000e5
:1019b000004155005555550055555500051054002a
:1019c000505555005555550055555500555050002a
:1019d0005505550050555500555555005555500065
:1019e0000015540055555500555555001554150012
:1019f0001454550041555500555555005515540082
:101a00001514400055154000055001001440050014
:101a100055050500555550000505000040154000ce
:101a20000555050005015500414150005040410059
:101a30004155550041415500155441004141410077
:101a40004141550055414100055450001514140002
:101a50005400500055555000505505005550500049
:101a600050500000505555005050150014540500ba
:101a70000505150054555500151454005541150021
:101a80001414140014545500551514004005050095
:101a90005541410041055500555505000555550076
:101aa0005005050005050500555555000505500074
:101ab00041414100505050004141410055414100d9
:101ac00055155400414141004141410041554100fb
:101ad00041005400015400001554010054505500b9
:101ae000015455000555500050505000015450000d
:101af00055010400005c0000002c00008000000084
:101b0000000800000400000080000000825800006f
:0c1b100006000000800000000000000043
:020000040000fa
:101b1c00f03fb1000180b10006003500ee03090072
:101b2c0000000000403fb1000180b100fbff3d0010
:101b3c001000b000203fb00002003500008009000a
:081b4c0000000000000006008b
:020000040000fa
:020000040005f5
:0457f400ffec0000c6
:020000040000fa
:020000040005f5
:0457f800be9b000054
:020000040000fa
:020000040005f5
:0457fc007f3f0000eb
:00000001FF
