:020000040000fa
:080000000002040000000000f2
:020000040000fa
:10000800d2020000d2020000d2020000d202000098
:10001800d2020000d2020000d2020000d202000088
:10002800d2020000d2020000d2020000d202000078
:10003800d2020000d2020000d2020000d202000068
:020000040000fa
:020000040000fa
:100400006f8020000ebf25000e0188000000000054
:10041000000020000000e000020032000001200087
:10042000200288000c0007006093200001002000db
:100430000f000700000020000000e0000200320072
:100440000000020000000000f806020000000000aa
:100450000040da000000fe00200020000000e00064
:100460000200320010002000900188000000060009
:10047000a1028800800078000000eb001a0037001d
:10048000e280400054a0b4009101ba00e280400034
:1004900054a0b4009102ba00e280400054a0b4001d
:1004a0000002eb00472bde00f507b200a601880032
:1004b000602ce10008003a000049eb000201e8006e
:1004c000020039003420ec0002f0a0008301e900b2
:1004d000f9ff3e00040037006128e100010032000e
:1004e0000082eb00040007001101ba000200e000e6
:1004f000e3ff3a000000060004d0a300e20f490029
:100500001c003900810278003549ba000201e80078
:10051000020039003420ec0002f0a0008301e90061
:100520000f0032002549ba000201e800020039003c
:100530003420ec0002f0a0008301e9000800320042
:100540000400e0000600320015c9ba000201e8000c
:10055000020039003420ec0002f0a0008301e90021
:100560008180e80054a0b4000300e000e2ff3a00fc
:10057000000006009102ba00055978008301e900e5
:10058000f7ff3200c82ade00055978008301e90030
:10059000f3ff32000400e000f1ff320011d9ba008d
:1005a000eeff37000040da000000fe0015c0b30087
:1005b00001002000048020001040880021408800b5
:1005c000054a780000000600048020008042eb000d
:1005d00094cf120002003a0010002000f3ff070041
:1005e0001040800021408000d2e62400631c2400db
:1005f00009000700940323000500200000024200c8
:1006000081824a0014408800254088000500780057
:1006100000f0a10000000600020ab900001bb900aa
:100620000200b80081004200810043000000060083
:020000040000fa
:100630000000fa00889fbe008a9fbe008c9fbe000b
:100640004487a8003d3a8000fc1f20008c8666008d
:100650000c6021000d0676003c3a88000ac0250097
:100660000b0020000a057800ca38880008c0250061
:100670000900200008047800d838880002c025004e
:1006800003002000020178006238880000c02500c5
:1006900001002000000078007038880006c02500a6
:1006a00007002000060378008638880004c0250073
:1006b0000500200004027800943888000082eb00d6
:1006c000f4398800243980000400a0000410a1003f
:1006d0000420a100243988000082eb00f43988004e
:1006e000a538800004802f00848262000428200046
:1006f00005027200a4388800a5388000f47f20002d
:1007000084826200f47f200004826200e638800068
:1007100005802f008502630005027200e43888001e
:10072000b538800004802f0084826200041e2000ff
:1007300005027200b4388800b5388000f47f2000cc
:1007400084826200f47f200004826200f638800018
:1007500005802f008502630005027200f4388800ce
:100760000539800004802f0084826200043220005a
:1007700005027200043988001539800004802f00ba
:1007800084826200a42320000502720014398800cc
:1007900026e7a9002647a90026c7a9002627a80002
:1007a0002607a80026a7a9002687a900d4c2b3005f
:1007b000040078002fe7b700f4722000144278009c
:1007c0000400780029e7b70004cab30004007800e9
:1007d0002ee7b700e472200014427800040078008d
:1007e00028e7b700a4c0b300040078002ce7b700e6
:1007f00004c1b300040078002ae7b70024c0b300a6
:10080000040078002de7b70004c6b30004007800a8
:100810002be7b7002667a9002727a8002707a8000d
:10082000243880000450a0000460a1000470a100de
:1008300024388800243880004522de0067426200a8
:100840000482fb00670262004522dd002639800039
:10085000f5f12f008502630005027200243988003b
:1008600005e7a80000e8230001002000710207004e
:100870004f06be004f05be004f04be000080fa00c8
:10088000000006000200fa00000f780000000000df
:10089000010037000000000034388000620262006e
:1008a000e00f5200fbff3a001e0278000438880077
:1008b0000460260014388800000000000080fa0060
:1008c000000006000000fa0031e7a8000042eb003b
:1008d0000002fd0030e7b7000002fd003107a8006c
:1008e0000002eb009439880000000000010037008e
:1008f00000000000853980000400240004826200aa
:10090000e00f5200faff3a0014c0b3000002fd00ed
:1009100030e7b7000002fd000082eb009439880048
:100920000000000001003700000000008539800051
:100930000400240004826200e00f5200faff3a0033
:1009400024c0b3000002fd0030e7b7000002fd0044
:1009500004402000943988000000000001003700a6
:100960000000000085398000040024000482620039
:10097000e00f5200faff3a0034c0b3000002fd005d
:1009800030e7b7000002fd0004802f009439880092
:1009900000000000010037000000000085398000e1
:1009a0000400240004826200e00f5200faff3a00c3
:1009b0003107a9000080fa00000006000400fa00d8
:1009c000000f7800110798001e027800044278009a
:1009d0000002fd0030e7b7000002fd003107a8006b
:1009e0001e029000943988000000000001003700ca
:1009f00000000000853980000400240004826200a9
:100a0000e00f5200faff3a003107a9000080fa0017
:100a1000000006000400fa00008fbe001e02be00a7
:100a200004027800643888001e02be0004027800c8
:100a3000743888001e02be000402780084388800e2
:100a40001e02be0004027800943888000080fa007c
:100a5000000006000400fa00008fbe001e02be0067
:100a600004027800c43888001e02be000402780028
:100a7000d43888000080fa00000006000800fa0060
:100a8000000f78001107980022079800330798009c
:100a90000000000001003700000000003438800032
:100aa00062026200e00f5200fbff3a009e029000db
:100ab0000428200004aab900040278001e024200a3
:100ac000043888001e0278006120b8001e029000e1
:100ad000050020000628200006abb90006037800b8
:100ae0006021b90082037800070343008402780084
:100af00004282000042ab800050343008602780079
:100b00000002420081824a00402ade00840278000e
:100b1000043026000502720014388800000000002e
:100b200000000000010037000000000034388000a1
:100b300062026200e00f5200fbff3a002e029000ba
:100b4000cc22dd003e0290000502720004388800cd
:100b50002e029000c422de0004402600050272002e
:100b60001438880000000000000000000100370079
:100b7000000000003438800062026200e00f520082
:100b8000fbff3a00040620000438880004702600a9
:100b900014388800000000000080fa000000060001
:100ba0000e00fa00000f7800110798002207980045
:100bb0003307980044079800550798006607980087
:100bc0000000000001003700000000003438800001
:100bd00062026200e00f5200fbff3a00ae0290009a
:100be0000428200004aab900840278001e029000a4
:100bf00004824200043888001e0290006120b80080
:100c00002e029000050020000628200006abb90047
:100c1000060378006021b9008203780007034300cf
:100c20008402780004282000042ab8000503430049
:100c3000860278000002420081824a00402ade00db
:100c4000840278000420260005027200143888000f
:100c5000000000000000000001003700000000005c
:100c60003438800062026200e00f5200fbff3a005d
:100c7000ce0290000428200004aab9008402780063
:100c80003e02900004824200043888003e02900038
:100c90006120b8004e0290000500200006282000c8
:100ca00006abb900060378006021b9008203780022
:100cb000070343008402780004282000042ab800b7
:100cc00005034300860278000002420081824a0048
:100cd000402ade00840278000430260005027200fb
:100ce00014388800000000000000000001003700f8
:100cf000000000003438800062026200e00f520001
:100d0000fbff3a005e029000cc22dd006e029000f4
:100d100005027200043888005e029000c422de00e2
:100d2000044026000502720014388800000000000c
:100d3000000000000100370000000000343880008f
:100d400062026200e00f5200fbff3a00f40f200045
:100d50001e0262004322dd00043888000470260071
:100d600014388800000000000080fa00000006002f
:100d70000000fa0020002000c2fe0700f31d200042
:100d8000e22720008000eb000000eb003bff0700a3
:100d900010002000bbfe0700031e200012002000f0
:100da0008000eb00e027200034ff0700f31d200047
:100db000120020008000eb000000eb002fff070076
:100dc00013002000e22720008000eb000000eb0071
:100dd0002aff070013002000e2272000f11d200059
:100de0000000eb0025ff07000080fa00000006006d
:100df0001800fa00881f78000002eb001427880012
:100e00000002eb00242788000002eb003427880052
:100e10000002eb00542788000002eb0064278800e2
:100e20000002eb004416880001fe0700a5fe070043
:100e300000c0250001002000f6fe07000a87a90077
:100e40000887a800caff070000402b00414c200083
:100e5000f800070010002000d4fd07000002eb009e
:100e6000040f7800840720001407980084072000ee
:100e700024079800a400200034079800a400200054
:100e8000440798000002eb0064079800440020002b
:100e90007407980084022000040f98008403200047
:100ea000140f98000002eb00540798000e0a9000ff
:100eb000e527200004825200240f98001e0a9000ab
:100ec000f51d200004825200340f9800100020000d
:100ed0006cfe0700de02900044032000848f520065
:100ee00003003a000002eb0054079800a0ff07003f
:100ef000ae029000c4172000848f52003a003600e2
:100f00004e029000e90f4200370035004e0290007b
:100f1000e90f520034003c00abfd070000027800ee
:100f20004824dd00a8fd07000002780008027200d6
:100f30008402780005f0a7008502ea002e0a9000de
:100f4000110009008402d800010278000402e800c0
:100f5000140798009cfd0700000278004506200059
:100f6000110009000502d800010278000482e8009f
:100f70002407980094fd07000002780085002000f7
:100f8000110009000502d800010278006322b900af
:100f9000040278006c025200340798003e02900070
:100fa000e00f5200f3ff320087fd070000027800d7
:100fb00085002000110009000502d8000102780018
:100fc0006322b900040278006602520044079800c8
:100fd0004e029000e00f5200f3ff32005e029000dc
:100fe0000402e800540798001e0fe8009e029000db
:100ff0003e0290000482420014079800ae02900066
:101000004e0290000482420024079800be02900025
:101010006e0290000482420034079800ce029000d5
:101020007e02900004824200440798001e02900055
:10103000e00f520006003c001e0290006202120007
:10104000140798003e0290000402ea00340798005a
:101050009e0290002e0a9000848f520009003400f6
:101060002e0a900004024200840278001e029000c2
:1010700004825200140798003e0290000402ea0025
:10108000340798002e029000e00f520006003c004a
:101090002e02900062021200240798004e02900077
:1010a0000402ea0044079800ae0290003e0a900055
:1010b000848f52000d0034003e0a9000040242006a
:1010c000840278002e0290000482520024079800c7
:1010d0004e0290008402ea00240020001100090062
:1010e0008402d80000027800440798000000eb005a
:1010f000e4fd07009e0b90000e0b9000ae029000e6
:101100001e029000870178000601780085007800b3
:101110000400780059fe070010002000d9fd0700e8
:101120001e0a90000482e900840378000e0a9000f1
:101130000482e900040378002e0290000402e80013
:10114000840278001e0290000402e8008701780003
:1011500006017800850078000400780047fe07004b
:101160000000eb00c7fd07002e029000680242005d
:10117000840278001e02900066024200e301200013
:10118000b200200085007800040078003bfe0700d4
:101190002e0290007c024200840278001e02900021
:1011a00071024200a3002000620020008500780048
:1011b0000400780031fe070030002000b1fd070078
:1011c0002e02900072024200840278001e029000fb
:1011d00077024200e3012000b20020008500780081
:1011e0000400780025fe07002e02900072024200e3
:1011f000840278001e02900071024200a3002000c9
:101200006200200085007800040078001bfe0700c3
:101210000a87a9000000000001003700000000005c
:101220005438800070026200e00f5200fbff320071
:0412300028ff37005c
:020000040000fa
:10123400f03fb1000180b10006003500ee03090063
:1012440000000000403fb1000180b100fbff3d0001
:101254001000b000203fb0000200350000800900fb
:0812640000000000000006007c
:020000040000fa
:10126c00005c0000002c0000800000000008000062
:0c127c00060000008000000000000000e0
:020000040000fa
:020000040005f5
:0457f400ffec0000c6
:020000040000fa
:020000040005f5
:0457f800be9b000054
:020000040000fa
:020000040005f5
:0457fc007f3f0000eb
:00000001FF
